{
  "_format": "hh-sol-artifact-1",
  "contractName": "ICO",
  "sourceName": "contracts/myToken.sol",
  "abi": [
    {
      "inputs": [],
      "stateMutability": "nonpayable",
      "type": "constructor"
    },
    {
      "anonymous": false,
      "inputs": [
        {
          "indexed": true,
          "internalType": "address",
          "name": "owner",
          "type": "address"
        },
        {
          "indexed": true,
          "internalType": "address",
          "name": "spender",
          "type": "address"
        },
        {
          "indexed": false,
          "internalType": "uint256",
          "name": "value",
          "type": "uint256"
        }
      ],
      "name": "Approval",
      "type": "event"
    },
    {
      "anonymous": false,
      "inputs": [
        {
          "indexed": true,
          "internalType": "address",
          "name": "previousOwner",
          "type": "address"
        },
        {
          "indexed": true,
          "internalType": "address",
          "name": "newOwner",
          "type": "address"
        }
      ],
      "name": "OwnershipTransferred",
      "type": "event"
    },
    {
      "anonymous": false,
      "inputs": [
        {
          "indexed": true,
          "internalType": "address",
          "name": "from",
          "type": "address"
        },
        {
          "indexed": true,
          "internalType": "address",
          "name": "to",
          "type": "address"
        },
        {
          "indexed": false,
          "internalType": "uint256",
          "name": "value",
          "type": "uint256"
        }
      ],
      "name": "Transfer",
      "type": "event"
    },
    {
      "inputs": [
        {
          "internalType": "address",
          "name": "owner",
          "type": "address"
        },
        {
          "internalType": "address",
          "name": "spender",
          "type": "address"
        }
      ],
      "name": "allowance",
      "outputs": [
        {
          "internalType": "uint256",
          "name": "",
          "type": "uint256"
        }
      ],
      "stateMutability": "view",
      "type": "function"
    },
    {
      "inputs": [
        {
          "internalType": "address",
          "name": "spender",
          "type": "address"
        },
        {
          "internalType": "uint256",
          "name": "amount",
          "type": "uint256"
        }
      ],
      "name": "approve",
      "outputs": [
        {
          "internalType": "bool",
          "name": "",
          "type": "bool"
        }
      ],
      "stateMutability": "nonpayable",
      "type": "function"
    },
    {
      "inputs": [
        {
          "internalType": "address",
          "name": "account",
          "type": "address"
        }
      ],
      "name": "balanceOf",
      "outputs": [
        {
          "internalType": "uint256",
          "name": "",
          "type": "uint256"
        }
      ],
      "stateMutability": "view",
      "type": "function"
    },
    {
      "inputs": [
        {
          "internalType": "address",
          "name": "account",
          "type": "address"
        },
        {
          "internalType": "uint256",
          "name": "amount",
          "type": "uint256"
        }
      ],
      "name": "burn",
      "outputs": [
        {
          "internalType": "bool",
          "name": "",
          "type": "bool"
        }
      ],
      "stateMutability": "nonpayable",
      "type": "function"
    },
    {
      "inputs": [],
      "name": "buy",
      "outputs": [
        {
          "internalType": "bool",
          "name": "",
          "type": "bool"
        }
      ],
      "stateMutability": "payable",
      "type": "function"
    },
    {
      "inputs": [],
      "name": "decimals",
      "outputs": [
        {
          "internalType": "uint8",
          "name": "",
          "type": "uint8"
        }
      ],
      "stateMutability": "view",
      "type": "function"
    },
    {
      "inputs": [
        {
          "internalType": "address",
          "name": "spender",
          "type": "address"
        },
        {
          "internalType": "uint256",
          "name": "subtractedValue",
          "type": "uint256"
        }
      ],
      "name": "decreaseAllowance",
      "outputs": [
        {
          "internalType": "bool",
          "name": "",
          "type": "bool"
        }
      ],
      "stateMutability": "nonpayable",
      "type": "function"
    },
    {
      "inputs": [
        {
          "internalType": "address",
          "name": "spender",
          "type": "address"
        },
        {
          "internalType": "uint256",
          "name": "addedValue",
          "type": "uint256"
        }
      ],
      "name": "increaseAllowance",
      "outputs": [
        {
          "internalType": "bool",
          "name": "",
          "type": "bool"
        }
      ],
      "stateMutability": "nonpayable",
      "type": "function"
    },
    {
      "inputs": [
        {
          "internalType": "address",
          "name": "account",
          "type": "address"
        },
        {
          "internalType": "uint256",
          "name": "amount",
          "type": "uint256"
        }
      ],
      "name": "mint",
      "outputs": [
        {
          "internalType": "bool",
          "name": "",
          "type": "bool"
        }
      ],
      "stateMutability": "nonpayable",
      "type": "function"
    },
    {
      "inputs": [],
      "name": "name",
      "outputs": [
        {
          "internalType": "string",
          "name": "",
          "type": "string"
        }
      ],
      "stateMutability": "view",
      "type": "function"
    },
    {
      "inputs": [],
      "name": "owner",
      "outputs": [
        {
          "internalType": "address",
          "name": "",
          "type": "address"
        }
      ],
      "stateMutability": "view",
      "type": "function"
    },
    {
      "inputs": [],
      "name": "renounceOwnership",
      "outputs": [],
      "stateMutability": "nonpayable",
      "type": "function"
    },
    {
      "inputs": [],
      "name": "symbol",
      "outputs": [
        {
          "internalType": "string",
          "name": "",
          "type": "string"
        }
      ],
      "stateMutability": "view",
      "type": "function"
    },
    {
      "inputs": [],
      "name": "totalSupply",
      "outputs": [
        {
          "internalType": "uint256",
          "name": "",
          "type": "uint256"
        }
      ],
      "stateMutability": "view",
      "type": "function"
    },
    {
      "inputs": [
        {
          "internalType": "address",
          "name": "to",
          "type": "address"
        },
        {
          "internalType": "uint256",
          "name": "amount",
          "type": "uint256"
        }
      ],
      "name": "transfer",
      "outputs": [
        {
          "internalType": "bool",
          "name": "",
          "type": "bool"
        }
      ],
      "stateMutability": "nonpayable",
      "type": "function"
    },
    {
      "inputs": [
        {
          "internalType": "address",
          "name": "from",
          "type": "address"
        },
        {
          "internalType": "address",
          "name": "to",
          "type": "address"
        },
        {
          "internalType": "uint256",
          "name": "amount",
          "type": "uint256"
        }
      ],
      "name": "transferFrom",
      "outputs": [
        {
          "internalType": "bool",
          "name": "",
          "type": "bool"
        }
      ],
      "stateMutability": "nonpayable",
      "type": "function"
    },
    {
      "inputs": [
        {
          "internalType": "address",
          "name": "newOwner",
          "type": "address"
        }
      ],
      "name": "transferOwnership",
      "outputs": [],
      "stateMutability": "nonpayable",
      "type": "function"
    },
    {
      "inputs": [
        {
          "internalType": "uint256",
          "name": "amount",
          "type": "uint256"
        }
      ],
      "name": "withdraw",
      "outputs": [
        {
          "internalType": "bool",
          "name": "",
          "type": "bool"
        }
      ],
      "stateMutability": "nonpayable",
      "type": "function"
    }
  ],
  "bytecode": "0x60806040523480156200001157600080fd5b506040518060400160405280600881526020017f436170736963756d0000000000000000000000000000000000000000000000008152506040518060400160405280600581526020017f434150534900000000000000000000000000000000000000000000000000000081525081600390816200008f9190620005d1565b508060049081620000a19190620005d1565b505050620000c4620000b86200010960201b60201c565b6200011160201b60201c565b6200010333620000d9620001d760201b60201c565b600a620000e7919062000848565b620f4240620000f7919062000899565b620001e060201b60201c565b620009d0565b600033905090565b6000600560009054906101000a900473ffffffffffffffffffffffffffffffffffffffff16905081600560006101000a81548173ffffffffffffffffffffffffffffffffffffffff021916908373ffffffffffffffffffffffffffffffffffffffff1602179055508173ffffffffffffffffffffffffffffffffffffffff168173ffffffffffffffffffffffffffffffffffffffff167f8be0079c531659141344cd1fd0a4f28419497f9722a3daafe3b4186f6b6457e060405160405180910390a35050565b60006012905090565b600073ffffffffffffffffffffffffffffffffffffffff168273ffffffffffffffffffffffffffffffffffffffff160362000252576040517f08c379a0000000000000000000000000000000000000000000000000000000008152600401620002499062000945565b60405180910390fd5b62000266600083836200034d60201b60201c565b80600260008282546200027a919062000967565b92505081905550806000808473ffffffffffffffffffffffffffffffffffffffff1673ffffffffffffffffffffffffffffffffffffffff168152602001908152602001600020600082825401925050819055508173ffffffffffffffffffffffffffffffffffffffff16600073ffffffffffffffffffffffffffffffffffffffff167fddf252ad1be2c89b69c2b068fc378daa952ba7f163c4a11628f55a4df523b3ef836040516200032d9190620009b3565b60405180910390a362000349600083836200035260201b60201c565b5050565b505050565b505050565b600081519050919050565b7f4e487b7100000000000000000000000000000000000000000000000000000000600052604160045260246000fd5b7f4e487b7100000000000000000000000000000000000000000000000000000000600052602260045260246000fd5b60006002820490506001821680620003d957607f821691505b602082108103620003ef57620003ee62000391565b5b50919050565b60008190508160005260206000209050919050565b60006020601f8301049050919050565b600082821b905092915050565b600060088302620004597fffffffffffffffffffffffffffffffffffffffffffffffffffffffffffffffff826200041a565b6200046586836200041a565b95508019841693508086168417925050509392505050565b6000819050919050565b6000819050919050565b6000620004b2620004ac620004a6846200047d565b62000487565b6200047d565b9050919050565b6000819050919050565b620004ce8362000491565b620004e6620004dd82620004b9565b84845462000427565b825550505050565b600090565b620004fd620004ee565b6200050a818484620004c3565b505050565b5b81811015620005325762000526600082620004f3565b60018101905062000510565b5050565b601f82111562000581576200054b81620003f5565b62000556846200040a565b8101602085101562000566578190505b6200057e62000575856200040a565b8301826200050f565b50505b505050565b600082821c905092915050565b6000620005a66000198460080262000586565b1980831691505092915050565b6000620005c1838362000593565b9150826002028217905092915050565b620005dc8262000357565b67ffffffffffffffff811115620005f857620005f762000362565b5b620006048254620003c0565b6200061182828562000536565b600060209050601f83116001811462000649576000841562000634578287015190505b620006408582620005b3565b865550620006b0565b601f1984166200065986620003f5565b60005b8281101562000683578489015182556001820191506020850194506020810190506200065c565b86831015620006a357848901516200069f601f89168262000593565b8355505b6001600288020188555050505b505050505050565b7f4e487b7100000000000000000000000000000000000000000000000000000000600052601160045260246000fd5b60008160011c9050919050565b6000808291508390505b600185111562000746578086048111156200071e576200071d620006b8565b5b60018516156200072e5780820291505b80810290506200073e85620006e7565b9450620006fe565b94509492505050565b60008262000761576001905062000834565b8162000771576000905062000834565b81600181146200078a57600281146200079557620007cb565b600191505062000834565b60ff841115620007aa57620007a9620006b8565b5b8360020a915084821115620007c457620007c3620006b8565b5b5062000834565b5060208310610133831016604e8410600b8410161715620008055782820a905083811115620007ff57620007fe620006b8565b5b62000834565b620008148484846001620006f4565b925090508184048111156200082e576200082d620006b8565b5b81810290505b9392505050565b600060ff82169050919050565b600062000855826200047d565b915062000862836200083b565b9250620008917fffffffffffffffffffffffffffffffffffffffffffffffffffffffffffffffff84846200074f565b905092915050565b6000620008a6826200047d565b9150620008b3836200047d565b9250828202620008c3816200047d565b91508282048414831517620008dd57620008dc620006b8565b5b5092915050565b600082825260208201905092915050565b7f45524332303a206d696e7420746f20746865207a65726f206164647265737300600082015250565b60006200092d601f83620008e4565b91506200093a82620008f5565b602082019050919050565b6000602082019050818103600083015262000960816200091e565b9050919050565b600062000974826200047d565b915062000981836200047d565b92508282019050808211156200099c576200099b620006b8565b5b92915050565b620009ad816200047d565b82525050565b6000602082019050620009ca6000830184620009a2565b92915050565b6120f780620009e06000396000f3fe6080604052600436106101095760003560e01c8063715018a611610095578063a457c2d711610064578063a457c2d7146103a7578063a6f2ae3a146103e4578063a9059cbb14610402578063dd62ed3e1461043f578063f2fde38b1461047c57610109565b8063715018a6146102fd5780638da5cb5b1461031457806395d89b411461033f5780639dc29fac1461036a57610109565b80632e1a7d4d116100dc5780632e1a7d4d146101de578063313ce5671461021b578063395093511461024657806340c10f191461028357806370a08231146102c057610109565b806306fdde031461010e578063095ea7b31461013957806318160ddd1461017657806323b872dd146101a1575b600080fd5b34801561011a57600080fd5b506101236104a5565b60405161013091906114d7565b60405180910390f35b34801561014557600080fd5b50610160600480360381019061015b9190611592565b610537565b60405161016d91906115ed565b60405180910390f35b34801561018257600080fd5b5061018b61055a565b6040516101989190611617565b60405180910390f35b3480156101ad57600080fd5b506101c860048036038101906101c39190611632565b610564565b6040516101d591906115ed565b60405180910390f35b3480156101ea57600080fd5b5061020560048036038101906102009190611685565b610593565b60405161021291906115ed565b60405180910390f35b34801561022757600080fd5b50610230610637565b60405161023d91906116ce565b60405180910390f35b34801561025257600080fd5b5061026d60048036038101906102689190611592565b610640565b60405161027a91906115ed565b60405180910390f35b34801561028f57600080fd5b506102aa60048036038101906102a59190611592565b610677565b6040516102b791906115ed565b60405180910390f35b3480156102cc57600080fd5b506102e760048036038101906102e291906116e9565b610711565b6040516102f49190611617565b60405180910390f35b34801561030957600080fd5b50610312610759565b005b34801561032057600080fd5b5061032961076d565b6040516103369190611725565b60405180910390f35b34801561034b57600080fd5b50610354610797565b60405161036191906114d7565b60405180910390f35b34801561037657600080fd5b50610391600480360381019061038c9190611592565b610829565b60405161039e91906115ed565b60405180910390f35b3480156103b357600080fd5b506103ce60048036038101906103c99190611592565b6108c3565b6040516103db91906115ed565b60405180910390f35b6103ec61093a565b6040516103f991906115ed565b60405180910390f35b34801561040e57600080fd5b5061042960048036038101906104249190611592565b6109d6565b60405161043691906115ed565b60405180910390f35b34801561044b57600080fd5b5061046660048036038101906104619190611740565b6109f9565b6040516104739190611617565b60405180910390f35b34801561048857600080fd5b506104a3600480360381019061049e91906116e9565b610a80565b005b6060600380546104b4906117af565b80601f01602080910402602001604051908101604052809291908181526020018280546104e0906117af565b801561052d5780601f106105025761010080835404028352916020019161052d565b820191906000526020600020905b81548152906001019060200180831161051057829003601f168201915b5050505050905090565b600080610542610b03565b905061054f818585610b0b565b600191505092915050565b6000600254905090565b60008061056f610b03565b905061057c858285610cd4565b610587858585610d60565b60019150509392505050565b600061059d610fd6565b478211156105e0576040517f08c379a00000000000000000000000000000000000000000000000000000000081526004016105d79061182c565b60405180910390fd5b6105e8610b03565b73ffffffffffffffffffffffffffffffffffffffff166108fc839081150290604051600060405180830381858888f1935050505015801561062d573d6000803e3d6000fd5b5060019050919050565b60006012905090565b60008061064b610b03565b905061066c81858561065d85896109f9565b610667919061187b565b610b0b565b600191505092915050565b6000610681610fd6565b3073ffffffffffffffffffffffffffffffffffffffff168373ffffffffffffffffffffffffffffffffffffffff16141580156106be575060008214155b6106fd576040517f08c379a00000000000000000000000000000000000000000000000000000000081526004016106f4906118fb565b60405180910390fd5b6107078383611054565b6001905092915050565b60008060008373ffffffffffffffffffffffffffffffffffffffff1673ffffffffffffffffffffffffffffffffffffffff168152602001908152602001600020549050919050565b610761610fd6565b61076b60006111aa565b565b6000600560009054906101000a900473ffffffffffffffffffffffffffffffffffffffff16905090565b6060600480546107a6906117af565b80601f01602080910402602001604051908101604052809291908181526020018280546107d2906117af565b801561081f5780601f106107f45761010080835404028352916020019161081f565b820191906000526020600020905b81548152906001019060200180831161080257829003601f168201915b5050505050905090565b6000610833610fd6565b3073ffffffffffffffffffffffffffffffffffffffff168373ffffffffffffffffffffffffffffffffffffffff1614158015610870575060008214155b6108af576040517f08c379a00000000000000000000000000000000000000000000000000000000081526004016108a690611967565b60405180910390fd5b6108b98383611270565b6001905092915050565b6000806108ce610b03565b905060006108dc82866109f9565b905083811015610921576040517f08c379a0000000000000000000000000000000000000000000000000000000008152600401610918906119f9565b60405180910390fd5b61092e8286868403610b0b565b60019250505092915050565b6000343373ffffffffffffffffffffffffffffffffffffffff163110158015610964575060003414155b6109a3576040517f08c379a000000000000000000000000000000000000000000000000000000000815260040161099a90611a8b565b60405180910390fd5b60006103e8346109b39190611aab565b90506109ce6109c061076d565b6109c8610b03565b83610d60565b600191505090565b6000806109e1610b03565b90506109ee818585610d60565b600191505092915050565b6000600160008473ffffffffffffffffffffffffffffffffffffffff1673ffffffffffffffffffffffffffffffffffffffff16815260200190815260200160002060008373ffffffffffffffffffffffffffffffffffffffff1673ffffffffffffffffffffffffffffffffffffffff16815260200190815260200160002054905092915050565b610a88610fd6565b600073ffffffffffffffffffffffffffffffffffffffff168173ffffffffffffffffffffffffffffffffffffffff1603610af7576040517f08c379a0000000000000000000000000000000000000000000000000000000008152600401610aee90611b5f565b60405180910390fd5b610b00816111aa565b50565b600033905090565b600073ffffffffffffffffffffffffffffffffffffffff168373ffffffffffffffffffffffffffffffffffffffff1603610b7a576040517f08c379a0000000000000000000000000000000000000000000000000000000008152600401610b7190611bf1565b60405180910390fd5b600073ffffffffffffffffffffffffffffffffffffffff168273ffffffffffffffffffffffffffffffffffffffff1603610be9576040517f08c379a0000000000000000000000000000000000000000000000000000000008152600401610be090611c83565b60405180910390fd5b80600160008573ffffffffffffffffffffffffffffffffffffffff1673ffffffffffffffffffffffffffffffffffffffff16815260200190815260200160002060008473ffffffffffffffffffffffffffffffffffffffff1673ffffffffffffffffffffffffffffffffffffffff168152602001908152602001600020819055508173ffffffffffffffffffffffffffffffffffffffff168373ffffffffffffffffffffffffffffffffffffffff167f8c5be1e5ebec7d5bd14f71427d1e84f3dd0314c0f7b2291e5b200ac8c7c3b92583604051610cc79190611617565b60405180910390a3505050565b6000610ce084846109f9565b90507fffffffffffffffffffffffffffffffffffffffffffffffffffffffffffffffff8114610d5a5781811015610d4c576040517f08c379a0000000000000000000000000000000000000000000000000000000008152600401610d4390611cef565b60405180910390fd5b610d598484848403610b0b565b5b50505050565b600073ffffffffffffffffffffffffffffffffffffffff168373ffffffffffffffffffffffffffffffffffffffff1603610dcf576040517f08c379a0000000000000000000000000000000000000000000000000000000008152600401610dc690611d81565b60405180910390fd5b600073ffffffffffffffffffffffffffffffffffffffff168273ffffffffffffffffffffffffffffffffffffffff1603610e3e576040517f08c379a0000000000000000000000000000000000000000000000000000000008152600401610e3590611e13565b60405180910390fd5b610e4983838361143d565b60008060008573ffffffffffffffffffffffffffffffffffffffff1673ffffffffffffffffffffffffffffffffffffffff16815260200190815260200160002054905081811015610ecf576040517f08c379a0000000000000000000000000000000000000000000000000000000008152600401610ec690611ea5565b60405180910390fd5b8181036000808673ffffffffffffffffffffffffffffffffffffffff1673ffffffffffffffffffffffffffffffffffffffff16815260200190815260200160002081905550816000808573ffffffffffffffffffffffffffffffffffffffff1673ffffffffffffffffffffffffffffffffffffffff168152602001908152602001600020600082825401925050819055508273ffffffffffffffffffffffffffffffffffffffff168473ffffffffffffffffffffffffffffffffffffffff167fddf252ad1be2c89b69c2b068fc378daa952ba7f163c4a11628f55a4df523b3ef84604051610fbd9190611617565b60405180910390a3610fd0848484611442565b50505050565b610fde610b03565b73ffffffffffffffffffffffffffffffffffffffff16610ffc61076d565b73ffffffffffffffffffffffffffffffffffffffff1614611052576040517f08c379a000000000000000000000000000000000000000000000000000000000815260040161104990611f11565b60405180910390fd5b565b600073ffffffffffffffffffffffffffffffffffffffff168273ffffffffffffffffffffffffffffffffffffffff16036110c3576040517f08c379a00000000000000000000000000000000000000000000000000000000081526004016110ba90611f7d565b60405180910390fd5b6110cf6000838361143d565b80600260008282546110e1919061187b565b92505081905550806000808473ffffffffffffffffffffffffffffffffffffffff1673ffffffffffffffffffffffffffffffffffffffff168152602001908152602001600020600082825401925050819055508173ffffffffffffffffffffffffffffffffffffffff16600073ffffffffffffffffffffffffffffffffffffffff167fddf252ad1be2c89b69c2b068fc378daa952ba7f163c4a11628f55a4df523b3ef836040516111929190611617565b60405180910390a36111a660008383611442565b5050565b6000600560009054906101000a900473ffffffffffffffffffffffffffffffffffffffff16905081600560006101000a81548173ffffffffffffffffffffffffffffffffffffffff021916908373ffffffffffffffffffffffffffffffffffffffff1602179055508173ffffffffffffffffffffffffffffffffffffffff168173ffffffffffffffffffffffffffffffffffffffff167f8be0079c531659141344cd1fd0a4f28419497f9722a3daafe3b4186f6b6457e060405160405180910390a35050565b600073ffffffffffffffffffffffffffffffffffffffff168273ffffffffffffffffffffffffffffffffffffffff16036112df576040517f08c379a00000000000000000000000000000000000000000000000000000000081526004016112d69061200f565b60405180910390fd5b6112eb8260008361143d565b60008060008473ffffffffffffffffffffffffffffffffffffffff1673ffffffffffffffffffffffffffffffffffffffff16815260200190815260200160002054905081811015611371576040517f08c379a0000000000000000000000000000000000000000000000000000000008152600401611368906120a1565b60405180910390fd5b8181036000808573ffffffffffffffffffffffffffffffffffffffff1673ffffffffffffffffffffffffffffffffffffffff1681526020019081526020016000208190555081600260008282540392505081905550600073ffffffffffffffffffffffffffffffffffffffff168373ffffffffffffffffffffffffffffffffffffffff167fddf252ad1be2c89b69c2b068fc378daa952ba7f163c4a11628f55a4df523b3ef846040516114249190611617565b60405180910390a361143883600084611442565b505050565b505050565b505050565b600081519050919050565b600082825260208201905092915050565b60005b83811015611481578082015181840152602081019050611466565b60008484015250505050565b6000601f19601f8301169050919050565b60006114a982611447565b6114b38185611452565b93506114c3818560208601611463565b6114cc8161148d565b840191505092915050565b600060208201905081810360008301526114f1818461149e565b905092915050565b600080fd5b600073ffffffffffffffffffffffffffffffffffffffff82169050919050565b6000611529826114fe565b9050919050565b6115398161151e565b811461154457600080fd5b50565b60008135905061155681611530565b92915050565b6000819050919050565b61156f8161155c565b811461157a57600080fd5b50565b60008135905061158c81611566565b92915050565b600080604083850312156115a9576115a86114f9565b5b60006115b785828601611547565b92505060206115c88582860161157d565b9150509250929050565b60008115159050919050565b6115e7816115d2565b82525050565b600060208201905061160260008301846115de565b92915050565b6116118161155c565b82525050565b600060208201905061162c6000830184611608565b92915050565b60008060006060848603121561164b5761164a6114f9565b5b600061165986828701611547565b935050602061166a86828701611547565b925050604061167b8682870161157d565b9150509250925092565b60006020828403121561169b5761169a6114f9565b5b60006116a98482850161157d565b91505092915050565b600060ff82169050919050565b6116c8816116b2565b82525050565b60006020820190506116e360008301846116bf565b92915050565b6000602082840312156116ff576116fe6114f9565b5b600061170d84828501611547565b91505092915050565b61171f8161151e565b82525050565b600060208201905061173a6000830184611716565b92915050565b60008060408385031215611757576117566114f9565b5b600061176585828601611547565b925050602061177685828601611547565b9150509250929050565b7f4e487b7100000000000000000000000000000000000000000000000000000000600052602260045260246000fd5b600060028204905060018216806117c757607f821691505b6020821081036117da576117d9611780565b5b50919050565b7f49434f3a20496e737566666963656e742066756e647300000000000000000000600082015250565b6000611816601683611452565b9150611821826117e0565b602082019050919050565b6000602082019050818103600083015261184581611809565b9050919050565b7f4e487b7100000000000000000000000000000000000000000000000000000000600052601160045260246000fd5b60006118868261155c565b91506118918361155c565b92508282019050808211156118a9576118a861184c565b5b92915050565b7f546f6b656e206d696e74696e6720496e76616c69640000000000000000000000600082015250565b60006118e5601583611452565b91506118f0826118af565b602082019050919050565b60006020820190508181036000830152611914816118d8565b9050919050565b7f546f6b656e206275726e696e6720496e76616c69640000000000000000000000600082015250565b6000611951601583611452565b915061195c8261191b565b602082019050919050565b6000602082019050818103600083015261198081611944565b9050919050565b7f45524332303a2064656372656173656420616c6c6f77616e63652062656c6f7760008201527f207a65726f000000000000000000000000000000000000000000000000000000602082015250565b60006119e3602583611452565b91506119ee82611987565b604082019050919050565b60006020820190508181036000830152611a12816119d6565b9050919050565b7f49434f3a20696e70757420656e7465726564206578636565647320757365722060008201527f62616c616e636500000000000000000000000000000000000000000000000000602082015250565b6000611a75602783611452565b9150611a8082611a19565b604082019050919050565b60006020820190508181036000830152611aa481611a68565b9050919050565b6000611ab68261155c565b9150611ac18361155c565b9250828202611acf8161155c565b91508282048414831517611ae657611ae561184c565b5b5092915050565b7f4f776e61626c653a206e6577206f776e657220697320746865207a65726f206160008201527f6464726573730000000000000000000000000000000000000000000000000000602082015250565b6000611b49602683611452565b9150611b5482611aed565b604082019050919050565b60006020820190508181036000830152611b7881611b3c565b9050919050565b7f45524332303a20617070726f76652066726f6d20746865207a65726f2061646460008201527f7265737300000000000000000000000000000000000000000000000000000000602082015250565b6000611bdb602483611452565b9150611be682611b7f565b604082019050919050565b60006020820190508181036000830152611c0a81611bce565b9050919050565b7f45524332303a20617070726f766520746f20746865207a65726f20616464726560008201527f7373000000000000000000000000000000000000000000000000000000000000602082015250565b6000611c6d602283611452565b9150611c7882611c11565b604082019050919050565b60006020820190508181036000830152611c9c81611c60565b9050919050565b7f45524332303a20696e73756666696369656e7420616c6c6f77616e6365000000600082015250565b6000611cd9601d83611452565b9150611ce482611ca3565b602082019050919050565b60006020820190508181036000830152611d0881611ccc565b9050919050565b7f45524332303a207472616e736665722066726f6d20746865207a65726f20616460008201527f6472657373000000000000000000000000000000000000000000000000000000602082015250565b6000611d6b602583611452565b9150611d7682611d0f565b604082019050919050565b60006020820190508181036000830152611d9a81611d5e565b9050919050565b7f45524332303a207472616e7366657220746f20746865207a65726f206164647260008201527f6573730000000000000000000000000000000000000000000000000000000000602082015250565b6000611dfd602383611452565b9150611e0882611da1565b604082019050919050565b60006020820190508181036000830152611e2c81611df0565b9050919050565b7f45524332303a207472616e7366657220616d6f756e742065786365656473206260008201527f616c616e63650000000000000000000000000000000000000000000000000000602082015250565b6000611e8f602683611452565b9150611e9a82611e33565b604082019050919050565b60006020820190508181036000830152611ebe81611e82565b9050919050565b7f4f776e61626c653a2063616c6c6572206973206e6f7420746865206f776e6572600082015250565b6000611efb602083611452565b9150611f0682611ec5565b602082019050919050565b60006020820190508181036000830152611f2a81611eee565b9050919050565b7f45524332303a206d696e7420746f20746865207a65726f206164647265737300600082015250565b6000611f67601f83611452565b9150611f7282611f31565b602082019050919050565b60006020820190508181036000830152611f9681611f5a565b9050919050565b7f45524332303a206275726e2066726f6d20746865207a65726f2061646472657360008201527f7300000000000000000000000000000000000000000000000000000000000000602082015250565b6000611ff9602183611452565b915061200482611f9d565b604082019050919050565b6000602082019050818103600083015261202881611fec565b9050919050565b7f45524332303a206275726e20616d6f756e7420657863656564732062616c616e60008201527f6365000000000000000000000000000000000000000000000000000000000000602082015250565b600061208b602283611452565b91506120968261202f565b604082019050919050565b600060208201905081810360008301526120ba8161207e565b905091905056fea264697066735822122045e88f354ab5609b9de13c22906af0f7cddc55b2c8acb295738ee38f16c7027264736f6c63430008110033",
  "linkReferences": {},
  "deployedLinkReferences": {}
}